:020000040800F2
:1000000000000824990A0008B5080008BB08000889
:10001000C1080008C7080008CD080008000000005B
:10002000000000000000000000000000D3080008ED
:10003000E108000800000000EF080008FD080008C3
:10004000E90A0008E90A0008E90A0008E90A0008C4
:10005000E90A0008E90A0008E90A0008E90A0008B4
:10006000E90A0008E90A0008E90A0008E90A0008A4
:10007000E90A0008E90A0008E90A0008E90A000894
:10008000E90A0008E90A0008E90A00080909000865
:10009000E90A0008E90A0008E90A0008E90A000874
:1000A000E90A0008E90A0008E90A0008E90A000864
:1000B000E90A0008E90A0008E90A0008E90A000854
:1000C000E90A0008E90A0008E90A0008E90A000844
:1000D000E90A0008E90A0008E90A0008E90A000834
:1000E000E90A0008E90A000800000000E90A00081F
:1000F000E90A0008E90A0008E90A0008E90A000814
:10010000E90A0008E90A0008E90A0008E90A000803
:10011000E90A0008E90A0008E90A0008E90A0008F3
:10012000E90A0008E90A0008E90A0008E90A0008E3
:10013000E90A0008E90A0008E90A0008E90A0008D3
:1001400000000000000000000000000000000000AF
:10015000E90A0008E90A0008E90A0008E90A0008B3
:10016000E90A0008E90A0008E90A0008E90A0008A3
:10017000E90A0008E90A0008E90A0008E90A000893
:10018000E90A0008E90A0008E90A0008E90A000883
:10019000E90A0008E90A0008E90A0008E90A000873
:1001A000E90A0008E90A0008E90A0008E90A000863
:1001B000E90A0008E90A0008E90A0008E90A000853
:1001C000E90A0008E90A0008E90A0008E90A000843
:1001D000E90A0008E90A0008E90A0008E90A000833
:1001E000E90A0008E90A0008E90A0008E90A000823
:1001F000E90A0008E90A0008E90A0008E90A000813
:10020000E90A0008E90A0008E90A0008E90A000802
:10021000E90A0008E90A0008E90A0008E90A0008F2
:10022000E90A0008E90A0008E90A000800000000DD
:10023000E90A0008E90A000800000000E90A0008CD
:10024000E90A0008E90A0008E90A0008E90A0008C2
:10025000E90A0008E90A0008E90A0008E90A0008B2
:10026000E90A0008E90A0008E90A0008E90A0008A2
:10027000E90A0008E90A0008E90A0008000000008D
:10028000E90A0008E90A0008E90A0008000000007D
:0802900000000000E90A00086B
:1002A00010B5054C237833B9044B13B10448AFF3B0
:1002B00000800123237010BD78000024000000009E
:1002C000AC54000808B5034B1BB103490348AFF316
:1002D000008008BD000000007C000024AC54000831
:1002E00001F0FF01102A2BDB10F0070F08D010F8E7
:1002F000013B013A8B422DD010F0070F42B3F6D1EB
:10030000F0B441EA012141EA014122F007047FF003
:1003100000070023F0E80256083C85EA010586EA5A
:10032000010685FA47F5A3FA87F586FA47F6A5FA96
:1003300087F68EB9EED1F0BC01F0FF0102F00702A2
:1003400032B110F8013B013A83EA010313B1F8D14D
:100350000020704701387047002D06BF354603382E
:10036000073815F0010F07D1013015F4807F02BF67
:10037000013015F4C03F0130F0BC0138704700BFB8
:1003800080B582B000AF786039603B6803F001034C
:10039000002B14D00C4B0D4A4021786800F0DCFF94
:1003A0000346002B01D000F0E3F900220121786818
:1003B00001F040F90346002B01D000F0D9F900BF4D
:1003C0000837BD4680BD00BF8C01002458010024C1
:1003D00080B500AF00F08AFB00F068F800F048F943
:1003E00000F0E0F82A4800F031FF0346002B01D06E
:1003F00000F0BEF900220121254801F01BF9034657
:10040000002B01D000F0B4F9224B1B681A46224B96
:100410001A60214B00225A601F4B00229A601E4B2B
:100420004FF41022DA601C4B00221A611A4B002292
:100430005A61194B4FF400129A61174B0022DA618E
:10044000154B00221A624FF40051144802F02AF8AA
:100450000346012B0CD11249124804F0C7FB0122BC
:100460000821114802F036F84FF47A7000F0D0FB02
:100470004FF47A7000F0CCFB0A4A0749044800F0B8
:1004800010FF0346002BDED000F072F9DBE700BF5F
:1004900094000024000000243401002400080258C5
:1004A000C4540008800100240010025880B59CB09C
:1004B00000AF07F124034C220021184604F08EFB04
:1004C0003B1D20220021184604F088FB022002F088
:1004D0001BF800233B60314BDB6A304A23F00103F9
:1004E000D3622E4BDB6A03F001033B602C4B9B690C
:1004F00023F440432A4A43F400439361284B9B6909
:1005000003F440433B603B6800BF254B9B6903F409
:100510000053B3F5005FF8D101237B624FF48033C1
:10052000BB620223BB640223FB6405233B6560239B
:100530007B650223BB650223FB6502233B66082320
:100540007B660023BB660023FB6607F12403184685
:1005500002F014F80346002B01D000F009F93F2304
:100560007B600323BB600023FB6008233B61002307
:100570007B610023BB610023FB6100233B623B1DC9
:100580000221184602F054FC0346002B01D000F073
:10059000EFF800BF7037BD4680BD00BF00040058B3
:1005A0000048025880B500AF2F4B304A1A602E4BDE
:1005B0004FF480729A602C4B0022DA602A4B0122A1
:1005C0001A74294B00225A74274B00229A74264B26
:1005D00014225A61244B0D229A61234B0222DA61C4
:1005E000214B02221A62204B19225A621E4B012211
:1005F0009A621D4B0222DA621B4B01221A631A4BCC
:1006000000225A63184B01229A63174B0022DA63C7
:10061000154B01221A64144B05225A64124B002216
:100620009A64114B0422DA640F4B00221A650E4BB8
:1006300004225A650C4B00229A650B4B0022DA65A6
:10064000094B01221A66084B00225A66064B052206
:100650009A66054800F01CFC0346002B01D000F010
:1006600087F800BF80BD00BF9400002400A00040B8
:1006700080B58AB000AF07F1140300221A605A60F7
:100680009A60DA601A61374BD3F8E030354A43F0AC
:100690001003C2F8E030334BD3F8E03003F010031E
:1006A0003B613B692F4BD3F8E0302E4A43F0040303
:1006B000C2F8E0302B4BD3F8E03003F00403FB60CA
:1006C000FB68284BD3F8E030264A43F08003C2F899
:1006D000E030244BD3F8E03003F08003BB60BB680C
:1006E000204BD3F8E0301F4A43F00103C2F8E0305A
:1006F0001C4BD3F8E03003F001037B607B68194B9F
:10070000D3F8E030174A43F00803C2F8E030154B45
:10071000D3F8E03003F008033B603B680022082177
:10072000114801F0D7FE08237B610123BB61002340
:10073000FB6103233B6207F1140319460A4801F0E9
:1007400001FD4FF400537B610023BB610223FB6179
:1007500007F114031946054801F0F4FC00BF2837DF
:10076000BD4680BD004402580010025800080258DF
:1007700080B400AF72B600BFFEE7000080B483B063
:1007800000AF0A4BD3F8F430084A43F00203C2F832
:10079000F430064BD3F8F43003F002037B607B683F
:1007A00000BF0C37BD465DF8047B7047004402581B
:1007B00080B5BAB000AF786007F1D40300221A60A8
:1007C0005A609A60DA601A6107F11003C0220021B2
:1007D000184604F003FA7B681B68334A93425ED1E3
:1007E0004FF400424FF00003C7E904230223BB612A
:1007F0001023FB6102233B6204237B620223BB6262
:10080000C023FB6200233B6300237B634FF0005354
:10081000C7F8803007F11003184602F039FE03468E
:10082000002B01D0FFF7A4FF204BD3F8EC301F4A78
:1008300043F48073C2F8EC301C4BD3F8EC3003F473
:100840008073FB60FB68194BD3F8E030174A43F024
:100850000803C2F8E030154BD3F8E03003F008038A
:10086000BB60BB680323C7F8D4300223C7F8D83075
:100870000023C7F8DC300023C7F8E0300923C7F8AD
:10088000E43007F1D4031946094801F05BFC00226B
:100890000021132000F0C7FA132000F0DEFA00BF99
:1008A000E837BD4680BD00BF00A0004000440258AC
:1008B000000C025880B400AFFEE780B400AFFEE742
:1008C00080B400AFFEE780B400AFFEE780B400AFB5
:1008D000FEE780B400AF00BFBD465DF8047B704703
:1008E00080B400AF00BFBD465DF8047B704780B4A4
:1008F00000AF00BFBD465DF8047B704780B500AF18
:1009000000F066F900BF80BD80B500AF024800F07E
:100910000BFF00BF80BD00BF9400002480B586B0EF
:1009200000AF7860144A154BD31A7B617B693B6139
:10093000134B1B68002B02D1114B124A1A60104B4B
:100940001A687B6813443A699A4207D204F00EF998
:1009500003460C221A604FF0FF3309E0084B1B6876
:10096000FB60074B1A687B681344054A1360FB68F9
:1009700018461837BD4680BD00000824000400005A
:1009800098010024B001002480B400AF374BD3F8A5
:100990008830364A43F47003C2F88830344B1B6801
:1009A00003F00F03062B07D8314B1B6823F00F030E
:1009B0002F4A43F0070313602E4B1B682D4A43F068
:1009C000010313602B4B00221A612A4B1A68294934
:1009D000294B13400B60264B1B6803F00803002BC8
:1009E00007D0234B1B6823F00F03214A43F0070372
:1009F0001360204B00229A611E4B0022DA611D4BCE
:100A000000221A621B4B1D4A9A621A4B1C4ADA6278
:100A1000184B1C4A1A63174B00225A63154B194A8C
:100A20009A63144B0022DA63124B164A1A64114B74
:100A300000225A640F4B1B680E4A23F48023136074
:100A40000C4B00221A66104B1A68104B1340B3F17E
:100A5000005F02D20E4B01221A600E4B43F2D2020B
:100A60001A6000BFBD465DF8047B704700ED00E0F2
:100A700000200052004402587FEDF6EA0002020214
:100A80000000FF01800201010010005C0000FFFF78
:100A90000881005100400052DFF834D0FFF774FFA6
:100AA0000C480D490D4A002302E0D458C4500433C9
:100AB000C4188C42F9D30A4A0A4C002301E013609F
:100AC0000432A242FBD304F057F8FFF781FC7047D1
:100AD0000000082400000024780000247455000859
:100AE00078000024B0010024FEE7000080B582B049
:100AF00000AF032000F08CF902F050FB0246154BCA
:100B00009B691B0A03F00F031349CB5C03F01F031F
:100B100022FA03F37B600F4B9B6903F00F030E4A2D
:100B2000D35C03F01F037A6822FA03F30B4A1360C5
:100B30000B4A7B6813600F2000F014F80346002B6B
:100B400001D0012302E0FFF719FE00231846083701
:100B5000BD4680BD00440258185500080800002416
:100B60000400002480B582B000AF7860154B1B787C
:100B7000002B01D1012321E0134B1A68114B1B7884
:100B800019464FF47A73B3FBF1F3B2FBF3F3184653
:100B900000F071F90346002B01D001230EE07B68C1
:100BA0000F2B0AD8002279684FF0FF3000F03BF994
:100BB000064A7B681360002300E0012318460837CB
:100BC000BD4680BD10000024040000240C00002459
:100BD00080B400AF064B1B781A46064B1B681344C3
:100BE000044A136000BFBD465DF8047B704700BF38
:100BF000100000249C01002480B400AF034B1B684C
:100C00001846BD465DF8047B704700BF9C01002478
:100C100080B584B000AF7860FFF7EEFFB8607B6806
:100C2000FB60FB68B3F1FF3F05D00A4B1B781A4607
:100C3000FB681344FB6000BFFFF7DEFF0246BB68A2
:100C4000D31AFA689A42F7D800BF00BF1037BD46E2
:100C500080BD00BF1000002480B400AF034B1B68B0
:100C60001B0C1846BD465DF8047B70470010005C05
:100C700080B485B000AF78607B6803F00703FB6049
:100C80000B4BDB68BB60BA684FF6FF031340BB60D9
:100C9000FB681A02BB681A43064B1343BB60044A45
:100CA000BB68D36000BF1437BD465DF8047B704756
:100CB00000ED00E00000FA0580B400AF044BDB68F3
:100CC0001B0A03F007031846BD465DF8047B704716
:100CD00000ED00E080B483B000AF0346FB80B7F9BD
:100CE0000630002B0BDBFB8803F01F020749B7F926
:100CF00006305B09012000FA02F241F8232000BF10
:100D00000C37BD465DF8047B704700BF00E100E092
:100D100080B483B000AF03463960FB80B7F906307A
:100D2000002B0ADB3B68DAB20C49B7F90630120136
:100D3000D2B20B4483F800230AE03B68DAB20849D8
:100D4000FB8803F00F03043B1201D2B20B441A7666
:100D500000BF0C37BD465DF8047B704700E100E042
:100D600000ED00E080B489B000AFF860B9607A604F
:100D7000FB6803F00703FB61FB69C3F10703042B66
:100D800028BF0423BB61FB690433062B02D9FB692E
:100D9000033B00E000237B614FF0FF32BB6902FAA6
:100DA00003F3DA43BB681A407B699A404FF0FF3186
:100DB0007B6901FA03F3D9437B680B401343184660
:100DC0002437BD465DF8047B7047000080B582B0D3
:100DD00000AF78607B68013BB3F1807F01D30123D2
:100DE0000FE00A4A7B68013B53600F214FF0FF3050
:100DF000FFF78EFF054B00229A60044B07221A6012
:100E0000002318460837BD4680BD00BF10E000E053
:100E100080B582B000AF78607868FFF729FF00BF27
:100E20000837BD4680BD80B586B000AF0346B960C7
:100E30007A60FB81FFF740FF78617A68B96878696A
:100E4000FFF790FF0246B7F90E3011461846FFF73C
:100E50005FFF00BF1837BD4680BD80B582B000AFD0
:100E60000346FB80B7F906301846FFF733FF00BF93
:100E70000837BD4680BD80B582B000AF7860786825
:100E8000FFF7A4FF034618460837BD4680BD0000A3
:100E900080B598B000AF7860844A07F10C03114622
:100EA0004C22184603F08CFE7B68002B01D10123F5
:100EB000C6E17B681B687E4A934206D17B681B684B
:100EC00003F580731A467B685A607B6893F8983004
:100ED000DBB2002B06D17B68002283F8992078686A
:100EE000FFF766FC7B681B689A697B681B6822F0C9
:100EF00010029A61FFF780FEF86514E0FFF77CFEB0
:100F00000246FB6DD31A0A2B0DD97B68D3F89C30AF
:100F100043F001027B68C3F89C207B68032283F8BE
:100F2000982001238CE17B681B689B6903F0080310
:100F3000082BE3D07B681B689A697B681B6842F0CA
:100F400001029A61FFF758FEF86514E0FFF754FEBE
:100F50000246FB6DD31A0A2B0DD97B68D3F89C305F
:100F600043F001027B68C3F89C207B68032283F86E
:100F70009820012364E17B681B689B6903F00103EF
:100F8000002BE3D07B681B689A697B681B6842F082
:100F900002029A617B681B7C012B08D17B681B686D
:100FA0009A697B681B6822F040029A6107E07B68BF
:100FB0001B689A697B681B6842F040029A617B68F3
:100FC0005B7C012B08D17B681B689A697B681B6876
:100FD00042F480429A6107E07B681B689A697B68EB
:100FE0001B6822F480429A617B689B7C012B08D1AC
:100FF0007B681B689A697B681B6822F480529A613F
:1010000007E07B681B689A697B681B6842F4805222
:101010009A617B681B689B6923F440717B689A68BE
:101020007B681B680A439A617B681B689A697B68C6
:101030001B6822F0A4029A617B681B681A697B68AE
:101040001B6822F010021A617B68DB68012B08D153
:101050007B681B689A697B681B6842F004029A618E
:1010600030E07B68DB68002B2CD07B68DB68022BD0
:1010700020D07B681B689A697B681B6842F08002FD
:101080009A617B681B681A697B681B6842F01002D2
:101090001A617B68DB68032B14D17B681B689A6933
:1010A0007B681B6842F020029A610BE0CC54000878
:1010B00000A000407B681B689A697B681B6842F04F
:1010C00020029A617B689B69013B5A067B68DB6959
:1010D000013B1B021A437B681B6A013B42EA030186
:1010E0007B685B69013B1A047B681B680A43DA6111
:1010F0007B689B68B3F5407F15D17B689B6A5A1E5D
:101100007B68DB6A013B1B021A437B681B6B013B5C
:101110001B0142EA03017B685B6A013B1A047B689E
:101120001B680A43DA607B681B6E002B0AD07B6861
:101130001B68D3F8C0107B685A6E7B681B680A4333
:10114000C3F8C0207B68DA6D7B681B6E1344002BEC
:1011500011D07B681B68D3F8C83023F007017B6887
:101160009B6E9B0060333B4453F8542C7B681B6898
:101170000A43C3F8C8207B681B6C002B11D07B6826
:101180001B68D3F8BC3023F007017B685B6C9B00C5
:1011900060333B4453F8542C7B681B680A43C3F804
:1011A000BC207B689B6C002B12D07B681B68D3F83B
:1011B000BC3023F070017B68DB6C9B0060333B44E8
:1011C00053F8543C1A017B681B680A43C3F8BC20DF
:1011D0007B681B6D002B12D07B681B68D3F8BC307A
:1011E00023F4E0617B685B6D9B0060333B4453F804
:1011F000543C1A027B681B680A43C3F8BC207B6816
:101200001B68114A934207D17B685B689A687B68C8
:101210005B6822F003029A607B680022C3F8942086
:101220007B680022C3F89C207B68012283F8982009
:10123000786800F083FD034687F85B3097F85B30F1
:1012400018466037BD4680BD00A0004080B483B022
:1012500000AF78607B6893F89830DBB2012B11D136
:101260007B68022283F898207B681B689A697B68F8
:101270001B6822F001029A617B680022C3F89C205F
:10128000002308E07B68D3F89C3043F004027B68BD
:10129000C3F89C20012318460C37BD465DF8047B3B
:1012A000704780B586B000AFF860B9607A60FB68BF
:1012B00093F89830DBB2022B41D1FB681B68D3F85E
:1012C000C03003F07C53002B09D1FB68D3F89C306D
:1012D00043F02002FB68C3F89C20012338E0FB6840
:1012E0001B68D3F8C43003F40013002B09D0FB684B
:1012F000D3F89C3043F40072FB68C3F89C200123B0
:1013000026E0FB681B68D3F8C4301B0C03F01F03F6
:101310007B617B697A68B968F86800F095FEFB68C4
:101320001B6801217A6901FA02F2C3F8D020012278
:101330007B699A40FB68C3F89420002308E0FB68AF
:10134000D3F89C3043F00802FB68C3F89C200123CB
:1013500018461837BD4680BD80B48BB000AFF8602A
:10136000B9607A603B600023FB61FB6893F89830BA
:10137000FB76FB7E022B40F04B81BB68402B4DD1AE
:10138000FB681B68D3F8A03003F4FE03002B09D1DF
:10139000FB68D3F89C3043F02002FB68C3F89C2024
:1013A00001233EE1FB681B68D3F8A43003F07F0300
:1013B000002B09D1FB68D3F89C3043F48072FB68A2
:1013C000C3F89C2001232CE1FB681B68D3F8A430F0
:1013D0001B0E03F00103012B0BD1FB681B68D3F834
:1013E000A030DB0F03F00103B3F1004F01D1012363
:1013F000FB61FB681B68D3F8A4301B0A03F03F03B2
:10140000FA691344FB61FB685A6FFB685B6CF9690E
:1014100001FB03F39B0013447B6269E0BB68412B33
:101420004DD1FB681B68D3F8B03003F4FE03002BEA
:1014300009D1FB68D3F89C3043F02002FB68C3F865
:101440009C200123EDE0FB681B68D3F8B43003F067
:101450007F03002B09D1FB68D3F89C3043F48072E2
:10146000FB68C3F89C200123DBE0FB681B68D3F812
:10147000B4301B0E03F00103012B0BD1FB681B687A
:10148000D3F8B030DB0F03F00103B3F1004F01D10B
:101490000123FB61FB681B68D3F8B4301B0A03F01F
:1014A0003F03FA691344FB61FB689A6FFB68DB6CCE
:1014B000F96901FB03F39B0013447B6218E0FB68AE
:1014C0001B6DBA689A4209D3FB68D3F89C3043F08D
:1014D0002002FB68C3F89C200123A2E0FB68DA6FBE
:1014E000FB685B6DB96801FB03F39B0013447B62EF
:1014F0007B6A1B6803F080427B685A607B685B688C
:10150000002B07D17B6A1B689B0CC3F30A027B6824
:101510001A6005E07B6A1B6823F060427B681A60F2
:101520007B6A1B6803F000527B689A607B6A1B68C9
:1015300003F000427B681A617B6A04337B627B6A3A
:101540001B689AB27B68DA617B6A1B6803F47022BD
:101550007B68DA607B6A1B6803F480127B685A61DF
:101560007B6A1B6803F400127B689A617B6A1B68C4
:101570001B0E03F07F027B681A627B6A1B68DA0F1E
:101580007B685A627B6A04337B627B6A7B610023DF
:101590003B620AE07A693B6A1A4439683B6A0B4449
:1015A00012781A703B6A01333B627B68DB681B0C64
:1015B0001F4AD35C1A463B6A9342EBD3BB68402B6D
:1015C00005D1FB681B68FA69C3F8A8201EE0BB6858
:1015D000412B05D1FB681B68FA69C3F8B82015E0F8
:1015E000BB681F2B08D8FB681B680121BA6801FA89
:1015F00002F2C3F8982009E0BB6803F01F02FB6801
:101600001B68012101FA02F2C3F89C20002308E0C4
:10161000FB68D3F89C3043F00802FB68C3F89C20B9
:10162000012318462C37BD465DF8047B704700BF88
:101630002855000880B487B000AFF860B9607A60C0
:10164000FB6893F89830FB75FB7D012B02D0FB7D86
:10165000022B55D1FB681B689A6DBB681340002BA9
:1016600008D1FB681B68DA6DFB681B6842F0010259
:10167000DA6514E0FB681B689A6DBB681340BA68B2
:101680009A4208D1FB681B68DA6DFB681B6842F060
:101690000202DA6503E0FB681B680322DA65BB68B7
:1016A00003F40073002B09D0FB681B68D3F8E0102B
:1016B000FB681B687A680A43C3F8E020BB6803F440
:1016C0008063002B09D0FB681B68D3F8E410FB682B
:1016D0001B687A680A43C3F8E420FB681B68596DED
:1016E000BA680F4B1340FA6812680B4353650D4BF1
:1016F0005A69BB689B0F0B4913434B61002308E0F9
:10170000FB68D3F89C3043F00202FB68C3F89C20CE
:10171000012318461C37BD465DF8047B704700BFA7
:10172000FFFFCF3F00A8004080B596B000AF7860C3
:101730009A4B1B699B077B65984B5B699B077A6D8E
:1017400013407B657B681B681B6D03F470433B652E
:101750007B681B685B6D3A6D13403B657B681B685B
:101760001B6D03F00F03FB647B681B685B6DFA6CF9
:101770001340FB647B681B681B6D03F0F003BB64C4
:101780007B681B685B6DBA6C1340BB647B681B682D
:101790001B6D03F071537B647B681B685B6D7A6C17
:1017A00013407B647B681B681B6D03F060733B64B4
:1017B0007B681B685B6D3A6C13403B647B681B68FD
:1017C0005B6DFB637B681B681B6DBB63FB6B1B0A5C
:1017D00003F00103002B10D0BB6B1B0A03F00103C5
:1017E000002B0AD07B681B684FF480721A656B4B24
:1017F00000221A61786800F054FAFB6B9B0A03F030
:101800000103002B1DD0BB6B9B0A03F00103002BCF
:1018100017D07B681B68D3F8DC307B637B681B6860
:10182000D3F8E4307A6B13407B637B681B684FF41A
:1018300080621A65594B00221A61796B786800F052
:1018400007FA7B6D002B0DD07B681A68796D544BBD
:101850000B401365514A7B6D9B0F1361796D78685E
:1018600000F0C0F93B6D002B0DD07B681A68396D14
:101870004B4B0B401365494A3B6D9B0F1361396D10
:10188000786800F0BAF9FB6C002B0DD07B681A6801
:10189000F96C434B0B401365404AFB6C9B0F136183
:1018A000F96C7868FEF76CFDBB6C002B0DD07B6883
:1018B0001A68B96C3A4B0B401365384ABB6C9B0FE6
:1018C0001361B96C786800F0A3F9FB6BDB0A03F0D5
:1018D0000103002B10D0BB6BDB0A03F00103002BCC
:1018E0000AD07B681B684FF400621A652B4B0022FC
:1018F0001A61786800F097F9FB6B5B0A03F001034B
:10190000002B1DD0BB6B5B0A03F00103002B17D02B
:101910007B681B68D3F8D8303B637B681B68D3F8BF
:10192000E0303A6B13403B637B681B684FF40072F6
:101930001A651A4B00221A61396B786800F07DF93C
:10194000FB6BDB0C03F00103002B10D0BB6BDB0C3B
:1019500003F00103002B0AD07B681B684FF40022C0
:101960001A650E4B00221A61786800F07CF9FB6B57
:101970001B0C03F00103002B16D0BB6B1B0C03F0F8
:101980000103002B10D07B681B684FF480321A656E
:10199000024B00221A61786804E000BF00A80040F2
:1019A000FFFFCF3F00F069F9FB6B9B0C03F00103D5
:1019B000002B10D0BB6B9B0C03F00103002B0AD053
:1019C0007B681B684FF480221A65834B00221A61E2
:1019D000786800F05CF9FB6B5B0C03F00103002BF3
:1019E00015D0BB6B5B0C03F00103002B0FD07B68A1
:1019F0001B684FF400321A65774B00221A617B682E
:101A0000D3F89C3043F080027B68C3F89C203B6C89
:101A1000002B0DD07B681A68396C704B0B40136536
:101A20006D4A3B6C9B0F1361396C786800F04DF97F
:101A30007B6C002B11D07B681A68796C674B0B406C
:101A40001365654A7B6C9B0F13617B68D3F89C2000
:101A50007B6C1A437B68C3F89C207B681B68604AD8
:101A6000934240F0AC807B685B689B6803F00303A3
:101A7000002B00F0A4807B685B681B6A03F00F03F7
:101A8000FB627B685B685B6AFA6A1340FB627B6897
:101A90005B681B6A03F03003BB627B685B685B6A50
:101AA000BA6A1340BB627B685B681B6A03F4C0734D
:101AB0007B627B685B685B6A7A6A13407B627B68E7
:101AC0005B681B6A03F4FC433B627B685B685B6A90
:101AD0003A6A13403B627B685B681B6A03F4F0233D
:101AE000FB617B685B685B6AFA691340FB617B683A
:101AF0005B685B6ABB617B685B681B6A7B61FB6AD6
:101B0000002B07D07B685B68FA6A1A62F96A78680A
:101B100000F0E6F8BB6A002B07D07B685B68BA6A06
:101B20001A62B96A786800F0E6F8BB699B0903F0AD
:101B30000103002B1AD07B699B0903F00103002BE2
:101B400014D07B685B68DB6B1B0C9BB23B617B68D2
:101B50005B68DB6B03F03F03FB607B685B684022E4
:101B60001A62FA683969786800F0D0F87B6A002B4D
:101B700007D07B685B687A6A1A62796A786800F0D5
:101B8000D1F83B6A002B0BD07B685B683A6A1A621B
:101B90007B68D3F89C203B6A1A437B68C3F89C207F
:101BA000FB69002B0BD07B685B68FA691A627B6863
:101BB000D3F89C20FB691A437B68C3F89C207B68A0
:101BC000D3F89C30002B02D0786800F074F800BF86
:101BD0005837BD4680BD00BF00A80040FFFFCF3F83
:101BE00000A0004080B483B000AF7860396000BFCF
:101BF0000C37BD465DF8047B704780B483B000AFFE
:101C00007860396000BF0C37BD465DF8047B7047D3
:101C100080B483B000AF7860396000BF0C37BD4638
:101C20005DF8047B704780B483B000AF786000BF7C
:101C30000C37BD465DF8047B704780B483B000AFBD
:101C40007860396000BF0C37BD465DF8047B704793
:101C500080B483B000AF7860396000BF0C37BD46F8
:101C60005DF8047B704780B483B000AF786000BF3C
:101C70000C37BD465DF8047B704780B483B000AF7D
:101C8000786000BF0C37BD465DF8047B704780B4B8
:101C900083B000AF786000BF0C37BD465DF8047BB1
:101CA000704780B483B000AF786000BF0C37BD468A
:101CB0005DF8047B704780B483B000AF786000BFEC
:101CC0000C37BD465DF8047B704780B483B000AF2D
:101CD0007860396000BF0C37BD465DF8047B704703
:101CE00080B483B000AF7860396000BF0C37BD4668
:101CF0005DF8047B704780B483B000AF78603960D2
:101D000000BF0C37BD465DF8047B704780B485B0DA
:101D100000AFF860B9607A6000BF1437BD465DF867
:101D2000047B704780B483B000AF7860396000BF37
:101D30000C37BD465DF8047B7047000080B485B069
:101D400000AF78607B685B6BBB607B681B68D3F817
:101D50008420A74B1340BA6891007A6812680B433D
:101D6000C2F884307B681B68D3F8843023F47F0189
:101D70007B689B6B1A047B681B680A43C3F884204A
:101D80007B689B6BBA681344BB607B681B68D3F8A5
:101D90008820974B1340BA6891007A6812680B4309
:101DA000C2F888307B681B68D3F8883023F4FE01C2
:101DB0007B68DB6B1A047B681B680A43C3F88820C6
:101DC0007B68DB6B5B00BA681344BB607B681B6895
:101DD000D3F8A020864B1340BA6891007A68126845
:101DE0000B43C2F8A0307B681B68D3F8A03023F403
:101DF000FE017B681B6C1A047B681B680A43C3F8EE
:101E0000A0207B681B6C7A68526C02FB03F3BA68F3
:101E10001344BB607B681B68D3F8B020744B13403D
:101E2000BA6891007A6812680B43C2F8B0307B68D8
:101E30001B68D3F8B03023F4FE017B689B6C1A0456
:101E40007B681B680A43C3F8B0207B689B6C7A6888
:101E5000D26C02FB03F3BA681344BB607B681B6857
:101E6000D3F8AC20624B1340BA6891007A681268CC
:101E70000B43C2F8AC307B681B6D7A68526D02FB75
:101E800003F3BA681344BB607B681B68D3F8F02087
:101E9000574B1340BA6891007A6812680B43C2F836
:101EA000F0307B681B68D3F8F03023F47C117B683A
:101EB0009B6D1A047B681B680A43C3F8F0207B689B
:101EC0009B6D5B00BA681344BB607B681B68D3F8EA
:101ED000C020474B1340BA6891007A6812680B43E0
:101EE000C2F8C0307B681B68D3F8C03023F47C1183
:101EF0007B68DB6D1A047B681B680A43C3F8C0204B
:101F00007B681B68D3F8C03023F07C517B681B6E64
:101F10001A067B681B680A43C3F8C0207B685A6BAB
:101F2000344B13449A007B68DA667B68DA6E7B6810
:101F30009B6B9B001A447B681A677B681A6F7B68EF
:101F4000DB6BDB001A447B685A677B685A6F7B68DF
:101F50001B6C7968496C01FB03F39B001A447B6896
:101F60009A677B689A6F7B689B6C7968C96C01FB88
:101F700003F39B001A447B68DA677B68DA6F7B683F
:101F80001B6D7968496D01FB03F39B001A447B6864
:101F9000C3F880207B68D3F880207B689B6DDB00D2
:101FA0001A447B68C3F884207B68D3F884207B685C
:101FB000DB6D7968896E01FB03F39B001A447B6833
:101FC000C3F888207B68D3F888207B681B6E79680B
:101FD000896E01FB03F39B001A447B68C3F89020D1
:101FE0007B68D3F89030044A934215D906E000BFCD
:101FF0000300FFFF002B0010FCD300407B68D3F8E8
:102000009C3043F020027B68C3F89C207B6803224D
:1020100083F89820012310E07B68DB6EFB6005E00D
:10202000FB6800221A60FB680433FB607B68D3F80E
:102030009030FA689A42F3D3002318461437BD460D
:102040005DF8047B704700BF80B489B000AFF860D2
:10205000B9607A603B60BB685B68002B0AD1BB68E3
:102060001A69BB689B681A43BB681B689B041343CF
:10207000FB610AE0BB681A69BB689B681A43BB68CE
:102080001B68134343F08043FB61BB681B6A1A065D
:10209000BB68DB691A43BB689B691A43BB685B6911
:1020A0001A43BB68DB6813433B61FB68D3F88420A9
:1020B000FB689B6E396801FB03F39B001344BB6113
:1020C000BB69FA691A60BB690433BB61BB693A69D1
:1020D0001A60BB690433BB6100237B6120E07B692C
:1020E00003337A6813441B781A067B6902337968D4
:1020F0000B441B781B041A437B69013379680B443A
:102100001B781B02134379687A690A4412781A43D0
:10211000BB691A60BB690433BB617B6904337B61B3
:10212000BB68DB681B0C064AD35C1A467B6993428A
:10213000D5D300BF00BF2437BD465DF8047B704790
:102140002855000880B489B000AF7860396000235A
:10215000FB61894B7B6194E13B681A680121FB6953
:1021600001FA03F313403B613B69002B00F08681C9
:102170003B685B6803F00303012B05D03B685B6899
:1021800003F00303022B30D17B689B68BB61FB69C2
:102190005B00032202FA03F3DB43BA691340BB611D
:1021A0003B68DA68FB695B0002FA03F3BA69134320
:1021B000BB617B68BA699A607B685B68BB6101221E
:1021C000FB6902FA03F3DB43BA691340BB613B6866
:1021D0005B681B0903F00102FB6902FA03F3BA69A9
:1021E0001343BB617B68BA695A603B685B6803F064
:1021F0000303032B17D07B68DB68BB61FB695B00C3
:10220000032202FA03F3DB43BA691340BB613B6864
:102210009A68FB695B0002FA03F3BA691343BB6176
:102220007B68BA69DA603B685B6803F00303022BE2
:1022300023D1FB69DA087B68083253F82230BB618E
:10224000FB6903F007039B000F2202FA03F3DB4351
:10225000BA691340BB613B681A69FB6903F0070365
:102260009B0002FA03F3BA691343BB61FB69DA0806
:102270007B680832B96943F822107B681B68BB6130
:10228000FB695B00032202FA03F3DB43BA691340E4
:10229000BB613B685B6803F00302FB695B0002FA09
:1022A00003F3BA691343BB617B68BA691A603B6880
:1022B0005B6803F44033002B00F0E0802F4BD3F831
:1022C000F4302E4A43F00203C2F8F4302B4BD3F81B
:1022D000F43003F00203FB60FB68294AFB699B08AA
:1022E000023352F82330BB61FB6903F003039B0008
:1022F0000F2202FA03F3DB43BA691340BB617B6828
:10230000204A934252D07B681F4A934231D07B6867
:102310001E4A93422BD07B681D4A934225D07B688E
:102320001C4A93421FD07B681B4A934219D07B689A
:102330001A4A934213D07B68194A93420DD07B68A6
:10234000184A934207D07B68174A934201D1092368
:102350002DE00A232BE0082329E0072327E00623AA
:1023600025E0052323E0042321E003231FE00223CB
:102370001DE001231BE000BF80000058004402580C
:1023800000040058000002580004025800080258D7
:10239000000C02580010025800140258001802588D
:1023A000001C025800200258002402580023FA6939
:1023B00002F0030292009340BA691343BB613849AB
:1023C000FB699B080233BA6941F823204FF0B04300
:1023D0001B68BB613B69DB43BA691340BB613B6867
:1023E0005B6803F48013002B03D0BA693B69134385
:1023F000BB614FF0B042BB6913604FF0B0435B6804
:10240000BB613B69DB43BA691340BB613B685B68F6
:1024100003F40013002B03D0BA693B691343BB617B
:102420004FF0B042BB6953607B695B68BB613B693D
:10243000DB43BA691340BB613B685B6803F400335C
:10244000002B03D0BA693B691343BB617B69BA694E
:102450005A607B691B68BB613B69DB43BA69134007
:10246000BB613B685B6803F48033002B03D0BA691F
:102470003B691343BB617B69BA691A60FB6901332D
:10248000FB613B681A68FB6922FA03F3002B7FF4B7
:1024900063AE00BF00BF2437BD465DF8047B7047C4
:1024A0000004005880B485B000AF78600B467B8094
:1024B0007B681A697B881340002B02D00123FB73D1
:1024C00001E00023FB73FB7B18461437BD465DF823
:1024D000047B704780B483B000AF78600B467B808C
:1024E00013467B707B78002B03D07A887B689A61D7
:1024F00003E07B881A047B689A6100BF0C37BD46F5
:102500005DF8047B7047000080B584B000AF786050
:10251000194BDB6803F00403042B0AD0164BDB686D
:1025200003F007037A689A4201D001231FE00023D9
:102530001DE0114BDB6823F007020F497B68134352
:10254000CB60FEF759FBF86009E0FEF755FB024649
:10255000FB68D31AB3F57A7F01D9012307E0064B54
:102560005B6803F40053B3F5005FEED10023184617
:102570001037BD4680BD00BF0048025880B58CB002
:1025800000AF78607B68002B02D1012300F048BCCB
:102590007B681B6803F00103002B00F08880994BD7
:1025A0001B6903F03803FB62964B9B6ABB62FB6AB4
:1025B000102B07D0FB6A182B11D1BB6A03F0030361
:1025C000022B0CD18F4B1B6803F40033002B6DD012
:1025D0007B685B68002B69D1012300F021BC7B681C
:1025E0005B68B3F5803F06D1864B1B68854A43F490
:1025F000803313602EE07B685B68002B0CD1814B2D
:102600001B68804A23F4803313607E4B1B687D4A2D
:1026100023F4802313601DE07B685B68B3F5A02F73
:102620000CD1784B1B68774A43F480231360754BB9
:102630001B68744A43F4803313600BE0714B1B68D2
:10264000704A23F4803313606E4B1B686D4A23F489
:10265000802313607B685B68002B13D0FEF7CCFAF5
:10266000786208E0FEF7C8FA02467B6AD31A642B48
:1026700001D90323D4E3634B1B6803F40033002B1D
:10268000F0D014E0FEF7B8FA786208E0FEF7B4FA8A
:1026900002467B6AD31A642B01D90323C0E3594B4A
:1026A0001B6803F40033002BF0D100E000BF7B680F
:1026B0001B6803F00203002B00F0CA80514B1B691A
:1026C00003F038033B624F4B9B6AFB613B6A002B74
:1026D00007D03B6A182B56D1FB6903F00303002B8C
:1026E00051D1484B1B6803F00403002B05D07B68D5
:1026F000DB68002B01D1012392E3424B1B6823F0DE
:1027000019027B68DB683F4913430B60FEF774FADC
:10271000786208E0FEF770FA02467B6AD31A022B51
:1027200001D903237CE3374B1B6803F00403002B20
:10273000F0D0FEF791FA034641F20302934217D814
:102740007B681B69402B08D12E4B5B6823F47C33DC
:102750002C4A43F4003353607AE02A4B5B6823F43D
:102760007C327B681B691B03264913434B606FE077
:10277000244B5B6823F0FE427B681B691B062149E2
:1027800013434B6064E07B68DB68002B47D01D4B34
:102790001B6823F019027B68DB681A4913430B603E
:1027A000FEF72AFA786208E0FEF726FA02467B6A0C
:1027B000D31A022B01D9032332E3124B1B6803F017
:1027C0000403002BF0D0FEF747FA034641F2030260
:1027D000934219D87B681B69402B08D1094B5B6871
:1027E00023F47C33074A43F40033536030E0054B55
:1027F0005B6823F47C327B681B691B03014913432C
:102800004B6025E0004402589A4B5B6823F0FE427F
:102810007B681B691B06974913434B6018E0954B77
:102820001B68944A23F001031360FEF7E5F9786210
:1028300008E0FEF7E1F902467B6AD31A022B01D9C0
:102840000323EDE28B4B1B6803F00403002BF0D154
:102850007B681B6803F01003002B00F0A980854BF8
:102860001B6903F03803BB61824B9B6A7B61BB69C8
:10287000082B07D0BB69182B3AD17B6903F00303FF
:10288000012B35D17B4B1B6803F48073002B05D0E3
:102890007B68DB69802B01D00123C1E2FEF7DCF904
:1028A000034641F20302934217D87B681B6A202B30
:1028B00008D1704B5B6823F0F8436E4A43F08043C5
:1028C000536075E06B4B5B6823F0F8427B681B6AD2
:1028D0009B06684913434B606AE0664BDB6823F054
:1028E0007C527B681B6A1B0662491343CB605FE026
:1028F0007B68DB69002B42D05E4B1B685D4A43F06E
:1029000080031360FEF778F9786208E0FEF774F947
:1029100002467B6AD31A022B01D9032380E2554B6E
:102920001B6803F48073002BF0D0FEF795F9034683
:1029300041F20302934217D87B681B6A202B08D10F
:102940004C4B5B6823F0F8434A4A43F080435360A2
:102950002EE0484B5B6823F0F8427B681B6A9B06BD
:10296000444913434B6023E0424BDB6823F07C5225
:102970007B681B6A1B063F491343CB6018E03D4B45
:102980001B683C4A23F080031360FEF735F9786238
:1029900008E0FEF731F902467B6AD31A022B01D90F
:1029A00003233DE2334B1B6803F48073002BF0D10B
:1029B0007B681B6803F00803002B36D07B685B69DB
:1029C000002B19D02B4B5B6F2A4A43F0010353674E
:1029D000FEF712F9786208E0FEF70EF902467B6A0C
:1029E000D31A022B01D903231AE2224B5B6F03F0A7
:1029F0000203002BF0D018E01E4B5B6F1D4A23F042
:102A000001035367FEF7F8F8786208E0FEF7F4F880
:102A100002467B6AD31A022B01D9032300E2154B2D
:102A20005B6F03F00203002BF0D17B681B6803F09F
:102A30002003002B39D07B689B69002B1CD00D4BE9
:102A40001B680C4A43F480531360FEF7D5F8786294
:102A500008E0FEF7D1F802467B6AD31A022B01D9AF
:102A60000323DDE1034B1B6803F40053002BF0D07C
:102A70001BE000BF004402589B4B1B689A4A23F49A
:102A800080531360FEF7B8F8786208E0FEF7B4F8F8
:102A900002467B6AD31A022B01D90323C0E1924B71
:102AA0001B6803F40053002BF0D17B681B6803F014
:102AB0000403002B00F081808C4B1B688B4A43F48D
:102AC00080731360FEF798F8786208E0FEF794F8D8
:102AD00002467B6AD31A642B01D90323A0E1834BFE
:102AE0001B6803F48073002BF0D07B689B68012B7C
:102AF00006D17D4B1B6F7C4A43F0010313672DE029
:102B00007B689B68002B0CD1774B1B6F764A23F0B8
:102B100001031367744B1B6F734A23F0040313679D
:102B20001CE07B689B68052B0CD16F4B1B6F6E4ABA
:102B300043F0040313676C4B1B6F6B4A43F00103B4
:102B400013670BE0684B1B6F674A23F001031367A1
:102B5000654B1B6F644A23F0040313677B689B6813
:102B6000002B15D0FEF748F878620AE0FEF744F82B
:102B700002467B6AD31A41F28832934201D9032379
:102B80004EE1594B1B6F03F00203002BEED014E013
:102B9000FEF732F878620AE0FEF72EF802467B6A0A
:102BA000D31A41F28832934201D9032338E14E4BC4
:102BB0001B6F03F00203002BEED17B685B6A002BD6
:102BC00000F02D81484B1B6903F03803182B00F0EF
:102BD000BD807B685B6A022B40F09E80424B1B6885
:102BE000414A23F080731360FEF706F8786208E02C
:102BF000FEF702F802467B6AD31A022B01D903239F
:102C00000EE1394B1B6803F00073002BF0D1364BFB
:102C10009A6A374B13407A68916A7A68D26A1201CD
:102C20000A43314913438B627B681B6B013BC3F33F
:102C300008027B685B6B013B5B029BB21A437B68BB
:102C40009B6B013B1B0403F4FE031A437B68DB6BA5
:102C5000013B1B0603F0FE43234913430B63224B46
:102C6000DB6A214A23F00103D3621F4B5A6B214BCD
:102C700013407A68926CD2001B4913434B631A4B82
:102C8000DB6A23F00C027B681B6C17491343CB6291
:102C9000154BDB6A23F002027B685B6C124913431D
:102CA000CB62114BDB6A104A43F48033D3620E4B84
:102CB000DB6A0D4A43F40033D3620B4BDB6A0A4AEA
:102CC00043F48023D362084BDB6A074A43F00103D5
:102CD000D362054B1B68044A43F080731360FDF711
:102CE0008BFF786211E000BF004402580048025890
:102CF0000CFCFFFF0700FFFFFDF77EFF02467B6A2B
:102D0000D31A022B01D903238AE0474B1B6803F037
:102D10000073002BF0D082E0434B1B68424A23F043
:102D200080731360FDF768FF786208E0FDF764FFC9
:102D300002467B6AD31A022B01D9032370E03A4B77
:102D40001B6803F00073002BF0D168E0364B9B6AE0
:102D50003B61354B1B6BFB607B685B6A012B31D0A1
:102D60003B6903F003027B689B6A9A422AD13B6964
:102D70001B0903F03F027B68DB6A9A4222D1FB68A1
:102D8000C3F308027B681B6B013B9A421AD1FB68B4
:102D90005B0A03F07F027B685B6B013B9A4211D1B7
:102DA000FB681B0C03F07F027B689B6B013B9A4224
:102DB00008D1FB681B0E03F07F027B68DB6B013BD5
:102DC0009A4201D001232BE0174B5B6BDB08C3F366
:102DD0000C033B617B689B6C3A699A421FD0124B93
:102DE000DB6A114A23F00103D362FDF705FF786225
:102DF00000BFFDF701FF02467B6A9342F9D00A4B00
:102E00005A6B0A4B13407A68926CD20006491343FE
:102E10004B63054BDB6A044A43F00103D362002392
:102E200018463037BD4680BD004402580700FFFFFA
:102E300080B586B000AF786039607B68002B01D127
:102E400001239CE18A4B1B6803F00F033A689A4206
:102E500010D9874B1B6823F00F0285493B68134349
:102E60000B60834B1B6803F00F033A689A4201D052
:102E7000012384E17B681B6803F00403002B10D05E
:102E80007B681A697B4B9B6903F070039A4208D9EF
:102E9000784B9B6923F070027B681B69754913436B
:102EA0008B617B681B6803F00803002B10D07B68E4
:102EB0005A69704BDB6903F070039A4208D96D4B75
:102EC000DB6923F070027B685B696A491343CB615D
:102ED0007B681B6803F01003002B10D07B689A6995
:102EE000644BDB6903F4E0639A4208D9614BDB6908
:102EF00023F4E0627B689B695E491343CB617B6886
:102F00001B6803F02003002B10D07B68DA69594B53
:102F10001B6A03F070039A4208D9564B1B6A23F0D0
:102F200070027B68DB69534913430B627B681B6843
:102F300003F00203002B10D07B68DA684D4B9B69CD
:102F400003F00F039A4208D94A4B9B6923F00F0202
:102F50007B68DB68474913438B617B681B6803F020
:102F60000103002B55D0434B9B6923F470627B68AF
:102F70009B68404913438B617B685B68022B07D1D8
:102F80003C4B1B6803F40033002B21D10123F6E0F6
:102F90007B685B68032B07D1364B1B6803F000731B
:102FA000002B15D10123EAE07B685B68012B07D178
:102FB000304B1B6803F48073002B09D10123DEE042
:102FC0002C4B1B6803F00403002B01D10123D6E036
:102FD000284B1B6923F007027B685B682549134374
:102FE0000B61FDF709FE78610AE0FDF705FE024678
:102FF0007B69D31A41F28832934201D90323BEE0A0
:103000001C4B1B6903F038027B685B68DB009A424B
:10301000EBD17B681B6803F00203002B10D07B68A8
:10302000DA68144B9B6903F00F039A4208D2114BE4
:103030009B6923F00F027B68DB680E4913438B61A9
:103040000B4B1B6803F00F033A689A4214D2084BEB
:103050001B6823F00F0206493B6813430B60044BC7
:103060001B6803F00F033A689A4205D0012386E0FB
:1030700000200052004402587B681B6803F00403E0
:10308000002B10D07B681A693F4B9B6903F07003DB
:103090009A4208D23C4B9B6923F070027B681B6903
:1030A000394913438B617B681B6803F00803002BCD
:1030B00010D07B685A69344BDB6903F070039A4285
:1030C00008D2314BDB6923F070027B685B692E49C3
:1030D0001343CB617B681B6803F01003002B10D0F7
:1030E0007B689A69284BDB6903F4E0639A4208D253
:1030F000254BDB6923F4E0627B689B69224913431B
:10310000CB617B681B6803F02003002B10D07B6829
:10311000DA691D4B1B6A03F070039A4208D21A4BFE
:103120001B6A23F070027B68DB69174913430B624B
:1031300000F034F80246144B9B691B0A03F00F039E
:103140001249CB5C03F01F0322FA03F33B610E4BE1
:103150009B6903F00F030D4AD35C03F01F033A6928
:1031600022FA03F30A4A13600A4A3B6913600A4BC6
:103170001B681846FDF7F6FC0346FB73FB7B1846FD
:103180001837BD4680BD00BF0044025818550008DE
:1031900008000024040000240C00002480B489B03E
:1031A00000AFB34B1B6903F03803182B00F25581B5
:1031B00001A252F823F000BF1D3200085B34000862
:1031C0005B3400085B3400085B3400085B340008A3
:1031D0005B3400085B340008433200085B340008AD
:1031E0005B3400085B3400085B3400085B34000883
:1031F0005B3400085B340008493200085B34000887
:103200005B3400085B3400085B3400085B34000862
:103210005B3400085B3400084F320008944B1B6895
:1032200003F02003002B09D0914B1B68DB0803F04F
:103230000303904A22FA03F3BB6111E18D4BBB619A
:103240000EE18D4BBB610BE18C4BBB6108E1884B00
:103250009B6A03F003037B61854B9B6A1B0903F0A8
:103260003F033B61824BDB6A03F00103FB60804B51
:103270005B6BDB08C3F30C03FA6802FB03F307EE96
:10328000903AF8EE677AC7ED027A3B69002B00F0BE
:10329000E1807B69022B00F083807B69022B00F2C6
:1032A000A1807B69002B03D07B69012B56D099E06C
:1032B0006F4B1B6803F02003002B2DD06C4B1B6859
:1032C000DB0803F003036B4A22FA03F37B607B689D
:1032D00007EE903AF8EE676A3B6907EE903AF8EE2F
:1032E000677A86EEA77A624B1B6BC3F3080307EE7F
:1032F000903AF8EE676A97ED026ADFED615AC6EE22
:10330000257A76EEA77AF7EE006A77EEA67A67EE70
:10331000277AC7ED077A87E03B6907EE903AF8EE27
:10332000677ADFED586A86EEA77A514B1B6BC3F3C1
:10333000080307EE903AF8EE676A97ED026ADFED50
:10334000505AC6EE257A76EEA77AF7EE006A77EE47
:10335000A67A67EE277AC7ED077A65E03B6907EE44
:10336000903AF8EE677ADFED486A86EEA77A404B2E
:103370001B6BC3F3080307EE903AF8EE676A97ED0C
:10338000026ADFED3F5AC6EE257A76EEA77AF7EEAF
:10339000006A77EEA67A67EE277AC7ED077A43E0F0
:1033A0003B6907EE903AF8EE677ADFED386A86EE11
:1033B000A77A2F4B1B6BC3F3080307EE903AF8EE86
:1033C000676A97ED026ADFED2E5AC6EE257A76EE31
:1033D000A77AF7EE006A77EEA67A67EE277AC7ED4E
:1033E000077A21E03B6907EE903AF8EE677ADFED65
:1033F000266A86EEA77A1E4B1B6BC3F3080307EE03
:10340000903AF8EE676A97ED026ADFED1D5AC6EE54
:10341000257A76EEA77AF7EE006A77EEA67A67EE5F
:10342000277AC7ED077A00BF114B1B6B5B0A03F0CD
:103430007F0301333B603B6807EE903AB8EE677A52
:10344000D7ED076AC6EE877AFCEEE77A17EE903A78
:10345000BB6105E00023BB6102E0074BBB6100BF1D
:10346000BB6918462437BD465DF8047B704700BF32
:10347000004402580090D00300093D0040787D01CF
:10348000000000460024744C0024744A20BCBE4B4B
:103490002DE9B04FCAB000AFC7F81401002387F878
:1034A0002731002387F82631D7F81431D3E90023D8
:1034B00002F00064002554EA050349D0D7F814311E
:1034C0009B6EB3F5401F2FD0B3F5401F28D8B3F53E
:1034D000001F1AD0B3F5001F22D8002B03D0B3F57C
:1034E000801F07D01CE0B84BDB6AB74A43F40033B7
:1034F000D3621AE0D7F8143108330221184601F0DC
:10350000D1F9034687F827310FE0D7F81431283373
:103510000221184601F078FA034687F8273104E0C3
:10352000012387F8273100E000BF97F82731002BEF
:103530000AD1A54B1B6D23F44011D7F814319B6EB3
:10354000A14A0B43136503E097F8273187F826312A
:10355000D7F81431D3E9002302F480784FF0000942
:1035600058EA090347D0D7F814319B6D042B2AD8A9
:1035700001A252F823F000BF8D3500089B350008EA
:10358000B1350008CF350008CF3500088E4BDB6A17
:103590008D4A43F40033D3621AE0D7F8143108336C
:1035A0000021184601F07EF9034687F827310FE025
:1035B000D7F8143128330021184601F025FA0346C4
:1035C00087F8273104E0012387F8273100E000BFA6
:1035D00097F82731002B0AD17B4B1B6D23F0070195
:1035E000D7F814319B6D784A0B43136503E097F8C5
:1035F000273187F82631D7F81431D3E9002302F4B4
:10360000007A4FF0000B5AEA0B034CD0D7F8143174
:10361000DB6DB3F5807F30D0B3F5807F29D8C02B28
:103620002DD0C02B25D8802B18D0802B21D8002B53
:1036300002D0402B07D01CE0634BDB6A624A43F4A4
:103640000033D3621CE0D7F8143108330021184648
:1036500001F028F9034687F8273111E0D7F8143133
:1036600028330021184601F0CFF9034687F82731A7
:1036700006E0012387F8273102E000BF00E000BF29
:1036800097F82731002B0AD14F4B1B6D23F4E071C3
:10369000D7F81431DB6D4C4A0B43136503E097F800
:1036A000273187F82631D7F81431D3E9002302F403
:1036B0008063C7F808310023C7F80C31D7E94212FC
:1036C0000B46134353D0D7F81431D3F8A830B3F5D1
:1036D000000F35D0B3F5000F2ED8B3F5C00F31D0A1
:1036E000B3F5C00F28D8B3F5800F1AD0B3F5800F0B
:1036F00022D8002B03D0B3F5001F07D01CE0324BBB
:10370000DB6A314A43F40033D3621CE0D7F814314A
:1037100008330021184601F0C5F8034687F8273121
:1037200011E0D7F8143128330021184601F06CF964
:10373000034687F8273106E0012387F8273102E0A6
:1037400000BF00E000BF97F82731002B0BD11E4BC4
:103750009B6D23F46001D7F81431D3F8A8301A4ACE
:103760000B43936503E097F8273187F82631D7F8A4
:103770001431D3E9002302F40063C7F800310023B9
:10378000C7F80431D7E940120B46134356D0D7F897
:103790001431D3F8AC30B3F1806F38D0B3F1806F0F
:1037A00031D8B3F1407F34D0B3F1407F2BD8B3F19F
:1037B000007F1DD0B3F1007F25D8002B06D0B3F1D8
:1037C000807F0AD01FE000BF00440258A24BDB6A92
:1037D000A14A43F40033D3621CE0D7F81431083314
:1037E0000021184601F05EF8034687F8273111E002
:1037F000D7F8143128330021184601F005F90346A3
:1038000087F8273106E0012387F8273102E000BF5F
:1038100000E000BF97F82731002B0BD18E4B9B6D3A
:1038200023F0E061D7F81431D3F8AC308A4A0B4367
:10383000936503E097F8273187F82631D7F81431DC
:10384000D3E9002302F00073C7F8F8300023C7F86B
:10385000FC30D7E93E120B4613433AD0D7F8143167
:10386000DB6C302B1FD0302B19D8202B0CD0202B09
:1038700015D8002B19D0102B11D1774BDB6A764A63
:1038800043F40033D36211E0D7F814310833022136
:10389000184601F007F8034687F8273106E00123B0
:1038A00087F8273102E000BF00E000BF97F827311A
:1038B000002B0AD1684BDB6C23F03001D7F81431B0
:1038C000DB6C654A0B43D36403E097F8273187F834
:1038D0002631D7F81431D3E9002302F48053C7F816
:1038E000F0300023C7F8F430D7E93C120B461343FD
:1038F00051D0D7F814311B6EB3F5804F35D0B3F5E6
:10390000804F2ED8B3F5405F31D0B3F5405F28D853
:10391000B3F5005F1AD0B3F5005F22D8002B03D0B7
:10392000B3F5805F07D01CE04B4BDB6A4A4A43F497
:103930000033D3621CE0D7F8143108330021184655
:1039400000F0B0FF034687F8273111E0D7F81431B3
:1039500028330021184601F057F8034687F827312D
:1039600006E0012387F8273102E000BF00E000BF36
:1039700097F82731002B0AD1374B1B6D23F4E04118
:10398000D7F814311B6E344A0B43136503E097F8E4
:10399000273187F82631D7F81431D3E9002302F410
:1039A0000053C7F8E8300023C7F8EC30D7E93A12E3
:1039B0000B46134356D0D7F814315B6EB3F5A02FE6
:1039C00033D0B3F5A02F2CD8B3F5802F2FD0B3F57B
:1039D000802F26D8B3F5403F2BD0B3F5403F20D8F9
:1039E000B3F5003F12D0B3F5003F1AD8002B22D018
:1039F000B3F5803F15D1D7F81431083301211846AB
:103A000000F050FF034687F8273115E0D7F814314E
:103A100028330121184600F0F7FF034687F82731C5
:103A20000AE0012387F8273106E000BF04E000BF69
:103A300002E000BF00E000BF97F82731002B0DD156
:103A4000054B1B6D23F4E021D7F814315B6E024A5D
:103A50000B43136506E000BF0044025897F8273176
:103A600087F82631D7F81431D3E9002302F48043D4
:103A7000C7F8E0300023C7F8E430D7E938120B4626
:103A8000134355D0D7F81431D3F8B030B3F1A04F69
:103A900033D0B3F1A04F2CD8B3F1804F2FD0B3F176
:103AA000804F26D8B3F1405F2BD0B3F1405F20D8D0
:103AB000B3F1005F12D0B3F1005F1AD8002B22D00F
:103AC000B3F1805F15D1D7F81431083301211846BE
:103AD00000F0E8FE034687F8273115E0D7F81431E7
:103AE00028330121184600F08FFF034687F827315D
:103AF0000AE0012387F8273106E000BF04E000BF99
:103B000002E000BF00E000BF97F82731002B0BD187
:103B1000A34B9B6D23F0E041D7F81431D3F8B030BC
:103B20009F4A0B43936503E097F8273187F82631C6
:103B3000D7F81431D3E9002302F40043C7F8D83092
:103B40000023C7F8DC30D7E936120B46134337D0D1
:103B5000D7F814311B6FB3F1005F0ED0B3F1005FE3
:103B600016D8002B18D0B3F1805F11D18C4BDB6AD3
:103B70008B4A43F40033D3620FE0D7F81431083393
:103B80000121184600F08EFE034687F8273104E035
:103B9000012387F8273100E000BF97F82731002B79
:103BA0000AD17F4B1B6D23F04051D7F814311B6FA6
:103BB0007B4A0B43136503E097F8273187F82631DA
:103BC000D7F81431D3E9002302F08073C7F8D0305E
:103BD0000023C7F8D430D7E934120B46134339D049
:103BE000D7F814319B6C032B1CD801A252F823F098
:103BF0002D3C0008013C00080F3C00082D3C00084B
:103C0000674BDB6A664A43F40033D3620FE0D7F8B0
:103C1000143108330221184600F044FE034687F8A9
:103C2000273104E0012387F8273100E000BF97F82F
:103C30002731002B0AD15A4BDB6C23F00301D7F854
:103C400014319B6C564A0B43D36403E097F8273139
:103C500087F82631D7F81431D3E9002302F4800322
:103C6000C7F8C8300023C7F8CC30D7E932120B466A
:103C7000134300F09F804B4B1B684A4A43F4807308
:103C80001360FCF7B9FFC7F820010BE0FCF7B4FFA5
:103C90000246D7F82031D31A642B03D9032387F8BF
:103CA000273105E03F4B1B6803F48073002BEDD0F8
:103CB00097F82731002B79D1394B1A6FD7F8143187
:103CC000D3F8B430534003F44073002B15D0344B79
:103CD0001B6F23F44073C7F81C31314B1B6F304A04
:103CE00043F4803313672E4B1B6F2D4A23F480332C
:103CF00013672B4AD7F81C311367D7F81431D3F860
:103D0000B430B3F5807F18D1FCF776FFC7F82001F7
:103D10000DE0FCF771FF0246D7F82031D21A41F2CC
:103D200088339A4203D9032387F8273105E01C4BD7
:103D30001B6F03F00203002BEBD097F82731002B09
:103D400029D1D7F81431D3F8B43003F44073B3F564
:103D5000407F0ED1124B1B6923F47C51D7F81431EC
:103D6000D3F8B4301A09104B13400D4A0B431361BA
:103D700005E00B4B1B690A4A23F47C531361084B83
:103D8000196FD7F81431D3F8B430C3F30B03044AD6
:103D90000B4313670EE097F8273187F8263109E0C7
:103DA0000044025800480258CFFFFF0097F827311F
:103DB00087F82631D7F81431D3E9002302F0010344
:103DC000C7F8C0300023C7F8C430D7E930120B461B
:103DD000134300F08980D7F81431DB6F282B6BD8A0
:103DE00001A252F823F000BFC13E0008B93E00080E
:103DF000B93E0008B93E0008B93E0008B93E0008C7
:103E0000B93E0008B93E00088D3E0008B93E0008E2
:103E1000B93E0008B93E0008B93E0008B93E0008A6
:103E2000B93E0008B93E0008A33E0008B93E0008AC
:103E3000B93E0008B93E0008B93E0008B93E000886
:103E4000B93E0008B93E0008C13E0008B93E00086E
:103E5000B93E0008B93E0008B93E0008B93E000866
:103E6000B93E0008B93E0008C13E0008B93E00084E
:103E7000B93E0008B93E0008B93E0008B93E000846
:103E8000B93E0008B93E0008C13E0008D7F8143119
:103E900008330121184600F005FD034687F8273155
:103EA0000FE0D7F8143128330121184600F0ACFD9B
:103EB000034687F8273104E0012387F8273100E023
:103EC00000BF97F82731002B0AD1BF4B5B6D23F061
:103ED0003801D7F81431DB6FBB4A0B43536503E05D
:103EE00097F8273187F82631D7F81431D3E9002322
:103EF00002F00203C7F8B8300023C7F8BC30D7E996
:103F00002E120B46134341D0D7F814319B6F052B6B
:103F100024D801A252F823F0653F0008313F000881
:103F2000473F0008653F0008653F0008653F0008FF
:103F3000D7F8143108330121184600F0B3FC0346CA
:103F400087F827310FE0D7F81431283301211846BC
:103F500000F05AFD034687F8273104E0012387F873
:103F6000273100E000BF97F82731002B0AD1964B8C
:103F70005B6D23F00701D7F814319B6F924A0B4316
:103F8000536503E097F8273187F82631D7F81431C5
:103F9000D3E9002302F00403C7F8B0300023C7F8C8
:103FA000B430D7E92C120B46134344D0D7F8143160
:103FB000D3F89430052B25D801A252F823F000BF86
:103FC0000D400008D93F0008EF3F00080D400008F1
:103FD0000D4000080D400008D7F8143108330121C6
:103FE000184600F05FFC034687F827310FE0D7F84A
:103FF000143128330121184600F006FD034687F8E6
:10400000273104E0012387F8273100E000BF97F84B
:104010002731002B0BD16C4B9B6D23F00701D7F898
:104020001431D3F89430684A0B43936503E097F852
:10403000273187F82631D7F81431D3E9002302F06D
:104040002003C7F8A8300023C7F8AC30D7E92A12FC
:104050000B46134355D0D7F81431D3F89030B3F151
:10406000A04F33D0B3F1A04F2CD8B3F1804F2FD055
:10407000B3F1804F26D8B3F1405F2BD0B3F1405F4E
:1040800020D8B3F1005F12D0B3F1005F1AD8002B33
:1040900022D0B3F1805F15D1D7F814310833002155
:1040A000184600F0FFFB034687F8273115E0D7F8E4
:1040B000143128330221184600F0A6FC034687F885
:1040C00027310AE0012387F8273106E000BF04E02A
:1040D00000BF02E000BF00E000BF97F82731002BCF
:1040E0000BD1394B5B6D23F0E041D7F81431D3F895
:1040F0009030354A0B43536503E097F8273187F832
:104100002631D7F81431D3E9002302F04003C7F871
:10411000A0300023C7F8A430D7E928120B46134378
:1041200058D0D7F81431D3F89C30B3F5A05F33D012
:10413000B3F5A05F2CD8B3F5805F2FD0B3F5805FC7
:1041400026D8B3F5406F2BD0B3F5406F20D8B3F528
:10415000006F12D0B3F5006F1AD8002B22D0B3F540
:10416000806F15D1D7F8143108330021184600F0BC
:1041700099FB034687F8273115E0D7F81431283327
:104180000221184600F040FC034687F827310AE078
:10419000012387F8273106E000BF04E000BF02E0FA
:1041A00000BF00E000BF97F82731002B0ED1064B6F
:1041B0009B6D23F4E051D7F81431D3F89C30024AB8
:1041C0000B43936506E000BF0044025897F827317F
:1041D00087F82631D7F81431D3E9002302F08003A1
:1041E000C7F898300023C7F89C30D7E926120B4651
:1041F000134355D0D7F81431D3F8A030B3F5204F7E
:1042000033D0B3F5204F2CD8B3F5004F2FD0B3F5F2
:10421000004F26D8B3F5C04F2BD0B3F5C04F20D8F0
:10422000B3F5804F12D0B3F5804F1AD8002B22D0AF
:10423000B3F5005F15D1D7F81431083300211846C3
:1042400000F030FB034687F8273115E0D7F814312A
:1042500028330221184600F0D7FB034687F82731A0
:104260000AE0012387F8273106E000BF04E000BF21
:1042700002E000BF00E000BF97F82731002B0BD110
:10428000A14B9B6D23F46041D7F81431D3F8A030D3
:104290009D4A0B43936503E097F8273187F8263151
:1042A000D7F81431D3E9002302F00803C7F890309F
:1042B0000023C7F89430D7E924120B4613431ED0CD
:1042C000D7F81431D3F88430B3F5805F0CD1D7F828
:1042D000143128330221184600F096FB0346002BC8
:1042E00002D0012387F82631874B5B6D23F44051C0
:1042F000D7F81431D3F88430834A0B435365D7F889
:104300001431D3E9002302F01003C7F888300023EA
:10431000C7F88C30D7E922120B4613431ED0D7F8CA
:104320001431D3F89830B3F5807F0CD1D7F814311D
:1043300028330221184600F067FB0346002B02D009
:10434000012387F82631704B9B6D23F44071D7F819
:104350001431D3F898306C4A0B439365D7F8143175
:10436000D3E9002302F40023C7F880300023C7F804
:104370008430D7E920120B4613433ED0D7F81431CE
:10438000D3F8A430B3F5003F22D0B3F5003F1BD8DB
:10439000002B03D0B3F5803F0BD015E0D7F81431D4
:1043A00008330021184600F07DFA034687F82731CC
:1043B0000FE0D7F8143128330221184600F024FB0F
:1043C000034687F8273104E0012387F8273100E00E
:1043D00000BF97F82731002B0BD14B4B9B6D23F47B
:1043E0004031D7F81431D3F8A430474A0B439365D2
:1043F00003E097F8273187F82631D7F81431D3E94D
:10440000002302F48023BB670023FB67D7E91E1259
:104410000B4613433BD0D7F81431D3F88830B3F5AB
:10442000401F1FD0B3F5401F18D8B3F5801F03D02D
:10443000B3F5001F07D011E0334BDB6A324A43F477
:104440000033D3620FE0D7F8143128330121184626
:1044500000F0DAFA034687F8273104E0012387F8F1
:10446000273100E000BF97F82731002B0BD1264BF6
:104470005B6D23F44011D7F81431D3F88830224A09
:104480000B43536503E097F8273187F82631D7F8B7
:104490001431D3E9002302F480333B6700237B67A8
:1044A000D7E91C120B46134334D0D7F814311B6DD7
:1044B000002B03D0B3F5803F07D011E0124BDB6A2D
:1044C000114A43F40033D3620EE0D7F814310833B5
:1044D0000221184600F0E6F9034687F8273103E089
:1044E000012387F8273100BF97F82731002B0DD122
:1044F000054BDB6C23F48031D7F814311B6D024A75
:104500000B43D36406E000BF0044025897F82731FC
:1045100087F82631D7F81431D3E9002302F000538D
:10452000BB660023FB66D7E91A120B4613430CD077
:10453000D7F8143128330221184600F065FA0346F3
:10454000002B02D0012387F82631D7F81431D3E9A4
:10455000002302F400333B6600237B66D7E9181280
:104560000B46134338D0D7F81431D3F88030B3F565
:10457000407F18D0B3F5407F11D8B3F5007F14D039
:10458000B3F5007F0BD8002B11D0B3F5807F06D197
:10459000C34BDB6AC24A43F40033D36208E0012311
:1045A00087F8273104E000BF02E000BF00E000BF51
:1045B00097F82731002B0BD1B94B5B6D23F4407179
:1045C000D7F81431D3F88030B54A0B43536503E074
:1045D00097F8273187F82631D7F81431D3E900232B
:1045E00002F48013BB650023FB65D7E916120B4666
:1045F000134309D0AA4B1B6D23F00041D7F81431A7
:104600005B6FA74A0B431365D7F81431D3E9002336
:1046100002F080533B6500237B65D7E914120B46FB
:1046200013430AD09E4B1B6923F48041D7F8143101
:10463000D3F8B8309A4A0B431361D7F81431D3E951
:10464000002302F40013BB640023FB64D7E91212B9
:104650000B46134309D0924B1B6D23F08071D7F8A2
:104660001431DB6E8E4A0B431365D7F81431D3E94E
:10467000002302F080433B6400237B64D7E91012DF
:104680000B4613430ED0864B1B69854A23F4004327
:104690001361834B1969D7F81431D3F8BC30804AC1
:1046A0000B431361D7F81431D3E9002302F0004320
:1046B000BB630023FB63D7E90E120B46134309D0FB
:1046C000774BDB6C23F04051D7F814315B6D744AA3
:1046D0000B43D364D7F81431D3E9002302F4000369
:1046E0003B6300237B63D7E90C120B4613430AD0CC
:1046F0006B4B5B6D23F44001D7F81431D3F88C3049
:10470000674A0B435365D7F81431D3E900230021DE
:10471000B96203F00103FB62D7E90A120B461343A7
:1047200011D0D7F8143108330021184600F0BAF838
:10473000034687F8273197F82731002B03D097F8E5
:10474000273187F82631D7F81431D3E90023002127
:10475000396203F002037B62D7E908120B46134368
:1047600011D0D7F8143108330121184600F09AF817
:10477000034687F8273197F82731002B03D097F8A5
:10478000273187F82631D7F81431D3E900230021E7
:10479000B96103F00403FB61D7E906120B4613432A
:1047A00011D0D7F8143108330221184600F07AF8F6
:1047B000034687F8273197F82731002B03D097F865
:1047C000273187F82631D7F81431D3E900230021A7
:1047D000396103F008037B61D7E904120B461343E8
:1047E00011D0D7F8143128330021184600F00CF905
:1047F000034687F8273197F82731002B03D097F825
:10480000273187F82631D7F81431D3E90023002166
:10481000B96003F01003FB60D7E902120B461343A3
:1048200011D0D7F8143128330121184600F0ECF8E4
:10483000034687F8273197F82731002B03D097F8E4
:10484000273187F82631D7F81431D3E90023002126
:10485000396003F020037B60D7E900120B46134355
:1048600011D0D7F8143128330221184600F0CCF8C3
:10487000034687F8273197F82731002B03D097F8A4
:10488000273187F8263197F82631002B01D10023F4
:1048900000E00123184607F59477BD46BDE8B08FC8
:1048A0000044025880B584B000AF786039600023BE
:1048B000FB73534B9B6A03F00303032B01D10123CA
:1048C00099E04F4B1B684E4A23F080631360FCF75E
:1048D00093F9B86008E0FCF78FF90246BB68D31A79
:1048E000022B01D9032386E0454B1B6803F00063CC
:1048F000002BF0D1424B9B6A23F47C327B681B680F
:104900001B033F4913438B627B685B68013BC3F326
:1049100008027B689B68013B5B029BB21A437B6881
:10492000DB68013B1B0403F4FE031A437B681B692D
:10493000013B1B0603F0FE43314913438B63304BAD
:10494000DB6A23F0C0027B685B692D491343CB62AD
:104950002B4BDB6A23F020027B689B6928491343B9
:10496000CB62274BDB6A264A23F01003D362244B29
:10497000DA6B244B13407A68D269D2002049134382
:10498000CB631F4BDB6A1E4A43F01003D3623B68C4
:10499000002B06D11A4BDB6A194A43F40023D36279
:1049A0000FE03B68012B06D1154BDB6A144A43F438
:1049B0008013D36205E0124BDB6A114A43F4001303
:1049C000D3620F4B1B680E4A43F080631360FCF701
:1049D00013F9B86008E0FCF70FF90246BB68D31A78
:1049E000022B01D9032306E0054B1B6803F000638B
:1049F000002BF0D0FB7B18461037BD4680BD00BFB2
:104A0000004402580700FFFF80B584B000AF786013
:104A100039600023FB73534B9B6A03F00303032BA2
:104A200001D1012399E04F4B1B684E4A23F080537C
:104A30001360FCF7E1F8B86008E0FCF7DDF8024627
:104A4000BB68D31A022B01D9032386E0454B1B68B0
:104A500003F00053002BF0D1424B9B6A23F07C7291
:104A60007B681B681B053F4913438B627B685B684F
:104A7000013BC3F308027B689B68013B5B029BB26E
:104A80001A437B68DB68013B1B0403F4FE031A43F3
:104A90007B681B69013B1B0603F0FE43314913434E
:104AA0000B64304BDB6A23F440627B685B692D4901
:104AB0001343CB622B4BDB6A23F400727B689B6948
:104AC00028491343CB62274BDB6A264A23F48073C1
:104AD000D362244B5A6C244B13407A68D269D200BB
:104AE000204913434B641F4BDB6A1E4A43F4807317
:104AF000D3623B68002B06D11A4BDB6A194A43F498
:104B00008003D3620FE03B68012B06D1154BDB6AB3
:104B1000144A43F40003D36205E0124BDB6A114AE6
:104B200043F08073D3620F4B1B680E4A43F08053EF
:104B30001360FCF761F8B86008E0FCF75DF8024626
:104B4000BB68D31A022B01D9032306E0054B1B686F
:104B500003F00053002BF0D0FB7B18461037BD4606
:104B600080BD00BF004402580700FFFF014B1868DA
:104B7000704700BF1400002470B50D4D0D4C641B30
:104B8000A4100026A64209D10B4D0C4C00F08EFC5F
:104B9000641BA4100026A64205D170BD55F8043B45
:104BA00098470136EEE755F8043B98470136F2E79F
:104BB0006C5500086C5500086C55000870550008CD
:104BC0000A44914200F1FF3300D1704710B511F84B
:104BD000014B03F8014F9142F9D110BD0244034645
:104BE000934200D1704703F8011BF9E70EB400B5FA
:104BF0009CB01DAB029006906FF0004109480791F0
:104C00000491094953F8042B05910068019302A906
:104C100000F068F8029B00221A701CB05DF804EBEB
:104C200003B07047140000240802FFFF2DE9F0478D
:104C30008E689E4282460C4690461F4638D88A8926
:104C400012F4906F32D025680969A5EB01096569F6
:104C500005EB450505EBD57501334B446D109D42C1
:104C600038BF1D46530531D5294600F055FB064691
:104C700050B90C23CAF80030A38943F04003A38144
:104C80004FF0FF30BDE8F08721694A46FFF798FFF3
:104C9000A38923F4906343F08003A38126616561B7
:104CA0004E44A5EB09052660A5603E46BE4200D9EC
:104CB0003E4620683246414600F0A8FAA3689B1B96
:104CC000A3602368334423600020DBE72A4600F01A
:104CD00097FB06460028E1D12169504600F0B0FA62
:104CE000C7E700002DE9F04F98468B891B069DB061
:104CF00007460D4614460ED50B6963B9402100F0F6
:104D00000BFB2860286120B90C233B604FF0FF307B
:104D1000D1E040236B610023099320238DF82930D3
:104D2000CDF80C803023DFF8A8818DF82A304FF0C1
:104D3000010923469A4613F8012B0AB1252AF9D115
:104D4000BAEB040B0BD05B46224629463846FFF7E8
:104D50006DFF013000F0AA80099A5A4409929AF82E
:104D60000030002B00F0A28000234FF0FF32CDE98D
:104D700005230AF1010A049307938DF853301A931F
:104D80005446052214F8011B5148FBF7A9FA049A6E
:104D9000D8B9D00644BF20238DF85330110744BF43
:104DA0002B238DF853309AF800302A2B15D0079A10
:104DB000544600204FF00A0C214611F8013B303BCD
:104DC000092B4ED9B0B1079214E0A0EB080309FA01
:104DD00003F313430493A246D2E7039B191D1B68F8
:104DE0000391002BBBBF5B4242F002020793079383
:104DF000B8BF049223782E2B0CD163782A2B35D19F
:104E0000039B1A1D1B680392002BB8BF4FF0FF33A2
:104E100002340593DFF8C8A0217803225046FBF73F
:104E20005FFA40B14023A0EB0A0003FA00F0049BB4
:104E300003430134049314F8011B26488DF828100D
:104E40000622FBF74DFA002838D0234B1BBB039BEF
:104E5000073323F0070308330393099B3344099373
:104E600067E70CFB02320C460120A5E70023013462
:104E7000059319464FF00A0C204610F8012B303AE2
:104E8000092A03D9002BC5D00591C3E70CFB0121EA
:104E900004460123F0E703AB00932A460F4B04A915
:104EA0003846AFF30080421C0646D6D1AB895B067C
:104EB0003FF52CAF09981DB0BDE8F08F03AB009310
:104EC0002A46064B04A9384600F07AF8EBE700BF03
:104ED0003855000842550008000000002D4C00081D
:104EE0003E5500082DE9F047164699468A680B6939
:104EF000DDF820809342B8BF1346336091F8432019
:104F000007460C460AB1013333602368990642BF55
:104F1000336802333360256815F0060506D104F1C5
:104F2000190AE36832689B1AAB4226DC94F84320E6
:104F3000131E226818BF012392062BD404F14302EA
:104F400049463846C04701301ED02368E5683268BC
:104F500003F00603042B08BFAD1AA36822690CBF37
:104F600025EAE57500259342C4BF9B1AED1800267B
:104F70001A34B5421AD1002008E0012352464946AE
:104F80003846C047013003D14FF0FF30BDE8F0870D
:104F90000135C6E7E1185A1C302081F8430022444D
:104FA00094F8451082F843100233C7E701232246E4
:104FB00049463846C0470130E6D00136D9E70000FF
:104FC0002DE9FF470F7E0C9D782F914680460C46B9
:104FD0009A4601F1430207D8622F0AD8002F00F049
:104FE000D880582F00F0A38004F1420584F8427065
:104FF0003AE0A7F16303152BF6D801A151F823F08D
:10500000595000086D500008E94F0008E94F0008AA
:10501000E94F0008E94F00086D500008E94F00080B
:10502000E94F0008E94F0008E94F000879510008EE
:105030009D5000085B510008E94F0008E94F000847
:105040009B510008E94F00089D500008E94F0008F7
:10505000E94F0008635100082B681A1D1B682A607D
:1050600004F1420584F842300123A3E02068296856
:10507000060601F104030AD50E682B60002E03DA40
:105080002D23764284F843305E480A2319E00E68E7
:105090002B6010F0400F18BF36B2EFE72B68206886
:1050A000191D2960010601D51E6802E04606FBD5E0
:1050B0001E8854486F2F0CBF08230A23002184F850
:1050C00043106568A560002DA2BF216821F004018E
:1050D00021600EB9002D4DD01546B6FBF3F103FB50
:1050E0001167C75D05F8017D3746BB420E46F4D90E
:1050F000082B0BD12368DE0708D523696168994224
:10510000DEBF302305F8013C05F1FF35521B22615B
:10511000CDF800A04B4603AA21464046FFF7E2FE29
:1051200001304CD14FF0FF3004B0BDE8F087354876
:1051300081F845702968236851F8046B29601D06C1
:1051400014D5DF0744BF43F0200323601EB9236852
:1051500023F0200323601023B0E7236843F02003EB
:1051600023607823284884F84530E3E7590648BF90
:10517000B6B2E6E71546BBE72B6826686169181DDD
:10518000286035061B6801D5196002E07006FBD562
:105190001980002323611546BAE72B681A1D2A607F
:1051A0001D68626800212846FBF79AF808B1401B89
:1051B000606063682361002384F84330A8E72369B3
:1051C0002A4649464046D0470130ABD023689B076A
:1051D00013D4E068039B9842B8BF1846A4E70123A4
:1051E000324649464046D04701309BD00135E368FE
:1051F00003995B1AAB42F2DCEBE7002504F11906D8
:10520000F5E700BF495500085A550008884210B517
:1052100001EB020402D98442234607D8431EA1426F
:1052200008D011F8012B03F8012FF8E702440146DA
:105230008A4200D110BD13F8014D02F8014DF7E785
:1052400037B5002944D051F8043C0190002BA1F15E
:105250000404B8BFE41800F013F91E4A019813685B
:1052600033B96360146003B0BDE8304000F00EB99C
:10527000A34208D9256861198B4201BF19685B6890
:1052800049192160EDE71A465B680BB1A342FAD9D0
:1052900011685518A5420BD1246821445418A34223
:1052A0001160E0D11C685B68536021441160DAE74B
:1052B00002D90C230360D6E7256861198B4204BF2D
:1052C00019685B68636004BF491921605460CAE7CC
:1052D00003B030BDA001002470B50E4E0C463168FD
:1052E000054611B900F0BCF830602146284600F0B0
:1052F000B7F8431C0AD0C41C24F00304A04207D012
:10530000211A284600F0ACF8013001D14FF0FF34EB
:10531000204670BDA40100242DE9F041CD1C25F0EC
:10532000030508350C2D38BF0C25002D074601DB81
:10533000A94205D90C233B6000263046BDE8F08128
:105340002E4E00F09DF833681C4634BB2946384683
:10535000FFF7C2FF431C04464DD134682646002E99
:1053600040D123683146384604EB030800F078F852
:1053700080453AD1216803356D1A25F003050835BB
:105380000C2D38BF0C2529463846FFF7A5FF013004
:105390002BD023682B4423600EE02268521B1ED4BE
:1053A0000B2A16D96119A342256018BF596063689A
:1053B00008BF316062514B60384604F10B0600F0C3
:1053C00065F826F00706231DF21AB6D09B1BA350E2
:1053D000B3E76268A3420CBF32605A60ECE7234631
:1053E0006468B2E734467668B9E70C233B60384618
:1053F00000F04CF8A1E72560DEE700BFA001002423
:105400002DE9F041804614460E4621B9BDE8F04131
:105410001146FFF781BF2AB9FFF712FF254628463C
:10542000BDE8F08100F038F88442074602D8B4EBBA
:10543000500F12D821464046FFF76EFF0546002860
:10544000EDD0BC422246314628BF3A46FFF7B8FBB2
:1054500031464046FFF7F4FEE1E73546DFE700005E
:1054600038B5064D0023044608462B60FBF756FA74
:10547000431C02D12B6803B1236038BDA80100246E
:10548000014800F011B800BFAC010024014800F051
:105490000CB800BFAC01002451F8043C181F002BCD
:1054A000BCBF0B58C018704770477047F8B500BFB5
:1054B000F8BC08BC9E467047F8B500BFF8BC08BCF5
:0454C0009E4670474D
:1054C4006E6F646500000000000000000000000032
:1054D40000000000000000000000000001000000C7
:1054E40002000000030000000400000000000000AF
:1054F40005000000000000000000000000000000A3
:105504000600000000000000000000000000000091
:10551400070000000000000001020304010203046C
:10552400060708090001020304050607080C101405
:1055340018203040232D302B2000686C4C00656609
:1055440067454647003031323334353637383941D0
:1055540042434445460030313233343536373839E6
:085564006162636465660000EA
:04556C00C50200086C
:04557000A10200088C
:105574000A0000000090D0030090D0031000000047
:1055840001000000180000240000000000000000DA
:105594000000000000000000000000000000000007
:1055A40000000000000000000000000000000000F7
:1055B40000000000000000000000000000000000E7
:1055C40000000000000000000000000000000000D7
:1055D40000000000000000000000000000000000C7
:0855E4000000000000000000BF
:0400000508000A994C
:00000001FF
